:020000040800F2
:100000009004002065010008E7010008DF010008F6
:10001000E3010008D9010008C50200080000000043
:1000200000000000000000000000000013020008B3
:10003000DD010008000000001102000815020008A0
:100040007F0100087F0100087F0100087F01000890
:100050007F0100087F0100087F0100087F01000880
:100060007F0100087F0100087F0100087F01000870
:100070007F0100087F0100087F0100087F01000860
:100080007F0100087F0100087F0100087F01000850
:100090007F0100087F0100087F0100087F01000840
:1000A0007F0100087F0100087F0100087F01000830
:1000B0007F0100087F0100087F0100087F01000820
:1000C0007F0100087F0100087F0100087F01000810
:1000D0007F0100087F0100087F0100087F01000800
:1000E0007F0100087F0100087F0100087F010008F0
:1000F0007F0100087F0100087F0100080000000068
:100100007F010008000000007F0100087F01000857
:100110007F0100087F0100087F0100087F010008BF
:100120007F0100087F0100087F0100087F010008AF
:100130007F01000800000000000000007F010008AF
:100140007F0100087F0100087F0100087F0100088F
:10015000DFF80CD000F02EF8004800470109000835
:10016000900400200648804706480047FEE7FEE767
:10017000FEE7FEE7FEE7FEE7FEE7FEE7FEE7FEE757
:10018000210200085101000830B50B46014600204D
:100190002022012409E021FA02F59D4205D303FA49
:1001A00002F5491B04FA02F52844151EA2F10102CA
:1001B000F1DC30BD064C074D06E0E06840F001037D
:1001C00094E8070098471034AC42F6D3FFF7C4FF19
:1001D0004C0F00086C0F000800BFFEE7704700BF1F
:1001E000FEE700BFFEE7704710B5002807DA0A07F0
:1001F000140E054A00F00F031B1FD45403E00A0736
:10020000130E024A135410BD18ED00E000E400E0A4
:100210007047704710B500F055FB00F029F910BD8C
:1002200008B52548006840F4700023490860234859
:10023000006840F001002149086000BF084640689E
:1002400040F0800048600020009002E00098401CD0
:10025000009000985028F9D31848406840F090006A
:10026000164948600020009002E00098401C009071
:1002700000985028F9D300BF1048406820F00300D0
:100280000E494860084600680D4908400B4908605F
:100290004FF47F00886000204860C862084600680C
:1002A00020F48020086000F06DFD00214FF0006018
:1002B00000F0EEFB08BD000088ED00E000100240F9
:1002C000FFFFF6EA00BFFEE70FB4054B10B503A928
:1002D000044A029800F018F810BC5DF814FB000006
:1002E0004D0500088C00002002E008C8121F08C15C
:1002F000002AFAD170477047002001E001C1121FA7
:10030000002AFBD1704700002DE9FF4F89B09B46C2
:100310000446002506E025280BD05A460B99904745
:10032000641C6D1C20780028F5D10DB02846BDE86E
:10033000F08F0027B8460122474900E0074314F830
:10034000013F203B02FA03F00842F7D120782E2823
:1003500019D114F8010F47F004072A280ED06FF0C6
:100360002F022078A0F1300109290CD808EB880170
:1003700002EB410100EB0108641CF2E70A98641CDF
:1003800050F8048B0A9020780028CED0642808D03A
:10039000692806D075281ED05A460B9990476D1CC7
:1003A00058E00A994FF00A0901C90A91002802DAB7
:1003B00040422D2102E0390504D52B218DF8201073
:1003C000012103E0F90704D02021F7E78A4608AEAF
:1003D0000DE00021FAE70A994FF00A0901C90A91D4
:1003E000F7E74946FFF7D0FE303106F8011D002837
:1003F000F7D1ADEB060000F12009780701D44FF0EA
:100400000108C84502DDA8EB090000E00020804695
:10041000002706E008A85A46C05D0B9990476D1C5E
:100420007F1C5745F6DB04E030205A460B99904775
:100430006D1CB8F10001A8F10108F5DC05E016F823
:10044000010B5A460B9990476D1CB9F10001A9F1B7
:100450000109F4DC641C65E7092801000349086010
:1004600000BF024909680029FBD170470400002041
:100470000448006820B103480068401E0149086034
:10048000704700000400002010B52C4B1B6883430C
:100490002A4C2360231D1B688343241D2360231DD6
:1004A0001B688343241D2360231D1B688343241D75
:1004B000236011B101290ED105E0204B1B680343D5
:1004C0001E4C236008E01D4B1B1D1B6803431B4C87
:1004D000241D236000E000BF00BF22B1012A0FD01D
:1004E000022A27D119E0154B08331B680343134C2C
:1004F00008342360231D1B688343241D23601AE0F6
:100500000E4B08331B6883430C4C08342360231DB7
:100510001B680343241D23600DE0084B08331B6850
:100520000343064C08342360231D1B680343241D2A
:10053000236000E000BF00BF10BD000000040140C8
:1005400001490860704700001404014070B504467A
:100550000D46E1B2054800F089FC00BF07210348C1
:1005600000F0D5FC0028F9D0204670BD00380140CD
:1005700070B5054600241E48854200D105E01D489F
:10058000854201D1012400E002241B4931F8140006
:1005900000F04AFB194931F8140000F045FB1849F6
:1005A00051F82430174951F824000322182100F093
:1005B00023F9154951F82430124951F82400032237
:1005C000042100F019F9284600F054FC4FF4E13101
:1005D000284600F003FC0421284600F0A7FC08216F
:1005E000284600F0ABFC284600F08CFC70BD0000F3
:1005F0000038014000440040480000202C0000204A
:1006000030000020400000203800002070B5044673
:100610000D46174931F8140000F006FB4FF4C06096
:1006200000F002FB134951F82430134951F824001B
:100630000322042100F0E0F8012D17D10F49085DD5
:100640000022022100F0C4F90D4A115D0D4A105D2F
:1006500000F086F80C4951F8240001220021FFF730
:1006600013FF094951F82400FFF76AFF70BD00002D
:100670006C00002060000020540000208600002054
:1006800083000020800000207400002010B5044684
:10069000044A52F82410044A52F8240000F00AF9DF
:1006A00010BD0000600000205400002010B504467A
:1006B0000B4931F8140000F0B7FA0A4951F8243018
:1006C000094951F824000322102100F095F805484B
:1006D00050F82400044951F82410486110BD00006E
:1006E0004C0000201C0000200C000020034951F8A1
:1006F0002010034A52F82020516170471C0000204E
:100700000C000020034951F82010034A52F8202021
:10071000116170471C0000200C00002070B50446D9
:100720000A4A52F824100A4A52F8240000F0C2F88B
:10073000C0F10100C5B2054A52F82410044A52F82B
:1007400024002A4600F006F870BD00001C000020BE
:100750000C0000200AB1016100E041617047000017
:1007600010B500228B071C0F0F2303FA04F2042993
:100770000EDA204B9B6893431E4CA36023469B6874
:100780008C07240F00FA04F423431A4CA3602FE0D3
:1007900008290EDA174BDB689343164CE3602346B7
:1007A000DB688C07240F00FA04F42343114CE36048
:1007B0001EE00C290EDA0F4B1B6993430D4C23618D
:1007C00023461B698C07240F00FA04F42343094CC9
:1007D00023610DE0074B5B699343064C636123463D
:1007E0005B698C07240F00FA04F42343014C636116
:1007F00010BD000000000140F0B50446164600257B
:10080000002201F00F0501F0100747B1042E05D1B9
:1008100045F00305E76B1F43E76300E03543002025
:100820001EE0012787401F40C7B122684FEA800CB5
:100830000F2707FA0CF7BA43870005FA07F73A4380
:10084000282904D1012787401F40676105E0482916
:1008500003D1012787401F4027612260471CB8B29F
:100860000828DED3082022E0012787401F40E7B197
:100870006268A0F108074FEA870C0F2707FA0CF708
:10088000BA43A0F10807BF0005FA07F73A43282941
:1008900004D1012787401F40676105E0482903D143
:1008A000012787401F4027616260471CB8B21028AB
:1008B000DAD3F0BD02469068084008B101207047C5
:1008C0000020FCE710B50D48006888B10B480068AF
:1008D000B0F5FA7F03D20020FFF714FF02E00020FA
:1008E000FFF704FF05480068401E0449086003E064
:1008F0004FF47A700149086010BD0000000000202C
:1009000000F044FA0020FFF7D1FE0120FFF7CEFEF1
:100910000220FFF7CBFE1D48FFF72AFE0021084604
:10092000FFF774FE002000F0BFF80446214618A02F
:10093000FFF7CAFC012000F0B7F80446214618A0D2
:10094000FFF7C2FC022000F0AFF80446214618A0D1
:10095000FFF7BAFC032000F0A7F80446214618A0D0
:10096000FFF7B2FC10E00020FFF790FE60B9012015
:10097000FFF7C8FE4FF4FA70FFF770FD0120FFF794
:10098000B5FE0220FFF7CAFEEDE700000038014087
:100990000D0A434B5F5359532069732025640000AF
:1009A0000D0A434B5F4148422069732025640000D3
:1009B0000D0A434B5F41504231206973202564008A
:1009C0000D0A434B5F415042322069732025640079
:1009D0002DE9F04103460D46164600240027A046A7
:1009E0002448006800F4E060B0F5A06F15D006DC84
:1009F000B0F5407F18D0B0F5806F19D110E0B0F598
:100A0000C06F06D0B0F5E06F12D100274FF0040898
:100A100015E001274FF0030811E00227B8460EE069
:100A200003274FF001080AE004274FF0000806E012
:100A30004FF4A06000F022F80227B84600BF00BFC4
:100A4000C7F1040005FA00F4C8F104010F20C84002
:100A50003040044324010848C45403F01F0101201E
:100A600088405911890001F1E021C1F80001BDE879
:100A7000F08100000CED00E000E400E002490143D9
:100A8000024A1160704700000000FA050CED00E01A
:100A9000034A0A400243034B1A60BFF34F8F70476B
:100AA00080FFFF1F08ED00E02DE9F14F8EB0002020
:100AB0000C9055A090E8004CC068CDE905BECDF87B
:100AC00010A0079051A0D0F804A00068CDE9020A58
:100AD0000FF2381ADAE9000ACDE9000A4E484068F8
:100AE000C0F381000D900D9820B1012804D0022898
:100AF00056D103E0494A55E0484A53E04648406829
:100B000000F48039B9F5803F2FD14348C06A00F026
:100B100080400B900B9808B9404900E040493E489E
:100B2000C06A00F480300A900A98B0F5803F12D174
:100B30003948C06AC0F30310401C08903648C06AA8
:100B4000C0F30320871C112F00D114270898B1FB94
:100B5000F0F000FB07F13048C06A00F00F00401CC5
:100B600009900998B1FBF0F100E02E492A4840684D
:100B7000C0F383432848406800F0005008B143F0B8
:100B800010030F2B01D29B1C00E05B1C01FB03F246
:100B90000F2B04D101EB4100400000EB510201E0BA
:100BA0001E4A00BF00BF1C484068C0F3031504A8DC
:100BB000465D22FA06F418484068C0F3022502A8F0
:100BC000465D24FA06FC14484068C0F3C2251DF8AF
:100BD000056024FA06F80E9830B1012806D00228E4
:100BE00006D003280AD106E00C9208E00C9406E037
:100BF000CDF830C003E0CDF8308000E000BF00BF8A
:100C00000C980FB0BDE8F08F00000000000000005D
:100C100001020304060708090010024000127A00CE
:100C2000006CDC0200093D00064A02EB90110968E5
:100C300000F01F0301229A401143024B03EB901274
:100C40001160704700100240064A02EB90110968DB
:100C500000F01F0301229A409143024B03EB9012D4
:100C60001160704700100240064A02EB90110968BB
:100C700000F01F0301229A401143024B03EB901234
:100C8000116070470010024000200021374A1268AE
:100C900042F48032354B1A6000BF401C334A126860
:100CA00002F4003119B94FF6FF729042F5D12F4A84
:100CB000126802F400320AB900BFFEE72C4A12683B
:100CC00022F00702D21C2A4B1A60284A5268274B8E
:100CD0005A601A4652685A601A46526842F4806254
:100CE0005A601A465268234B1A40204B5A601A46E3
:100CF0005268214B1A431D4B5A601A46D26A1F4B49
:100D00001A401A4BDA621A46D26A1D4B1A43174B25
:100D1000DA621A46126842F080621A6000BF134A13
:100D2000126802F00062002AF9D0104A126842F0FC
:100D300080720E4B1A6000BF0C4A126802F00072FB
:100D4000002AF9D0094A526822F00302074B5A6080
:100D50001A46526842F002025A6000BF034A5268C3
:100D600002F00802002AF9D070470000001002408B
:100D700000200240FFFFC3DF0000352000F0FEBF6F
:100D80001908010010B5FFF77FFF10BD10B512481C
:100D900000684FF47A71B0FBF1F4601EB0F1807F0F
:100DA00001D301200FE0601E4FF0E02148610F21C8
:100DB0004FF0FF30FFF718FA00204FF0E021886174
:100DC00007200861002008B100BFFEE70021481E8F
:100DD000FFF70AFA10BD0000080000202DE9F047D7
:100DE00004460D460027B846B94600261D49601A3C
:100DF0008C421CD006DC1C48204470B1B0F5806FDA
:100E00001FD10FE0B0F5806F16D0B0F56C4F18D140
:100E10000320FFF749FE074614E00220FFF744FED7
:100E200007460FE00220FFF73FFE07460AE00220D8
:100E3000FFF73AFE074605E00220FFF735FE0746BA
:100E400000E000BF00BF07EB5500B0FBF5F64FF622
:100E5000F07006EA000806F00F0948EA0900A060F1
:100E6000BDE8F087004C004000BCFFBFC1F30802A2
:100E70004260704710B504462049601A8C4228D061
:100E800006DC1F48204490B1B0F5806F33D117E0E5
:100E9000B0F5806F26D0B0F56C4F2CD140F20E30FB
:100EA000FFF7E2FE40F20E30FFF7CEFE24E040F204
:100EB0001140FFF7D9FE40F21140FFF7C5FE1BE0DD
:100EC00040F21240FFF7D0FE40F21240FFF7BCFEA6
:100ED00012E040F21340FFF7C7FE40F21340FFF765
:100EE000B3FE09E040F21440FFF7BEFE40F21440AA
:100EF000FFF7AAFE00E000BF00BF10BD004C00409D
:100F000000BCFFBFC16841F40051C160704710B51B
:100F1000024602EB9110006801F01F040123A34078
:100F2000184008B1012010BD0020FCE70A4600214E
:100F3000C16821F004011143C16070470A460021D5
:100F4000C16821F008011143C16070476C0F0008AF
:100F50000000002090000000E8020008FC0F0008DC
:100F60009000002000040000F802000800000000CB
:100F700000000000000E2707001001400010014093
:100F800000180140001801400100000004000000AA
:100F900001000000020000000E0611070002000020
:100FA00004000000000400000800000000080140E8
:100FB00000080140020602060406040606060606AC
:100FC0000008014000100140000C01400100000039
:100FD0000020000000400000020604060306000096
:100FE000010000000020000000400000000201009D
:0C0FF0000D0E0628280000000000000084
:04000005080001519D
:00000001FF
