:020000040800F2
:10000000600D002065010008C50200081702000805
:10001000C1020008D1010008C90300080000000067
:10002000000000000000000000000000F3020008D3
:100030001502000800000000F10200081D0300087E
:100040007F0100087F0100087F0100087F01000890
:100050007F0100087F0100087F0100087F01000880
:100060007F0100087F0100087F0100087F01000870
:100070007F0100087F0100087F0100087F01000860
:100080007F0100087F0100087F0100087F01000850
:10009000D50100087F0100087F0100087F010008EA
:1000A0007F0100087F0100087F0100087F01000830
:1000B0007F0100087F0100087F0100087F01000820
:1000C0007F0100087F0100087F0100087F01000810
:1000D0007F0100087F0100087F0100087F01000800
:1000E0007F0100087F0100087F0100087F010008F0
:1000F0007F0100087F0100087F0100080000000068
:100100007F010008000000007F0100087F01000857
:100110007F0100087F0100087F0100087F010008BF
:100120007F0100087F0100087F0100087F010008AF
:100130007F01000800000000000000007F010008AF
:10014000F50100087F0100087F0100087F01000819
:10015000DFF80CD000F02AF800480047FD1B00082B
:10016000600D00200648804706480047FEE7FEE78E
:10017000FEE7FEE7FEE7FEE7FEE7FEE7FEE7FEE757
:10018000250300085101000840EA01039B0703D042
:1001900009E008C9121F08C0042AFAD203E011F8C6
:1001A000013B00F8013B521EF9D27047064C074D47
:1001B00006E0E06840F0010394E807009847103437
:1001C000AC42F6D3FFF7C8FF1C2800083C28000803
:1001D00000BFFEE710B5044A0021044800F032FFDA
:1001E00001200349086010BD580800200064004049
:1001F0000C00002010B5044A0021044800F022FF42
:1002000001200349086010BDA808002000680040D4
:1002100010000020704700BFFEE700002DE9F0410C
:1002200007460C4600250026607805432D02A0787D
:1002300005432D02E07805432D0220790543174838
:1002400005604560607908B1022000E00020134994
:100250004872A07908B1042000E000200F4908721C
:10026000207A8872E07981F84B00012081F84C00F7
:10027000002081F84D00002606E006F10900215C0F
:1002800006480B308155761C207AB042F5DC0349D4
:10029000384600F0B9FFBDE8F081000008080020F2
:1002A00010B502F075F940F2026002F04DF840F22C
:1002B000036002F049F840F2046002F045F810BD16
:1002C00000BFFEE77047000010B5002807DA0A07F4
:1002D000140E054A00F00F031B1FD45403E00A0755
:1002E000130E024A135410BD18ED00E000E400E0C4
:1002F0007047704710B5044602221146252001F0D0
:10030000F7FE2146044801F063FA40F20531024845
:1003100002F0FBF910BD00000038014010B501F0FB
:100320007FF910BD08B52548006840F470002349E6
:1003300008602348006840F001002149086000BFC0
:100340000846406840F0800048600020009002E0CD
:100350000098401C009000985028F9D31848406835
:1003600040F09000164948600020009002E000989C
:10037000401C009000985028F9D300BF10484068F6
:1003800020F003000E494860084600680D49084007
:100390000B4908604FF47F00886000204860C86205
:1003A0000846006820F48020086002F0EDF8002183
:1003B0004FF0006001F0FCFE08BD000088ED00E099
:1003C00000100240FFFFF6EA00BFFEE702E008C8A7
:1003D000121F08C1002AFAD170477047002001E0BF
:1003E00001C1121F002AFBD17047000010B500BFE9
:1003F00000BF45480068401C434908600846006843
:10040000072801DD002008604048007A04280DD14B
:100410003E48446801203C49096801EBC10202EBF7
:1004200001113B4A02EB810108710CE03748046876
:1004300000203549096801EBC10202EB0111344A81
:1004400002EB810108713048006800EBC00202EB4A
:1004500000102F4A02EB8001204601F0C6FB2B481A
:10046000407A022801D1012000E0002026490968D5
:1004700001EBC10202EB0111254A02EB8101487137
:10048000224890F84C102048006800EBC00202EBB4
:1004900000101F4A02EB800081711C48807A1A49C3
:1004A000096801EBC10202EB0111194A02EB81015B
:1004B000C87100230FE015480B30C15C124800687A
:1004C00000EBC00202EB0010114A02EB800203F1C4
:1004D000080011545B1C0C48006800EBC00101EBE4
:1004E00000100B4901EB8000C0799842E3DC094819
:1004F0000068401C0749086008460068082801DDBC
:100500000820086010BD00001C00002058080020D2
:10051000180100201400002010B500BF00BF45489E
:100520000068401C4349086008460068072801DD50
:10053000002008604048007A04280DD13E484468F5
:1005400001203C49096801EBC10202EB01113B4A61
:1005500002EB810108710CE037480468002035493E
:10056000096801EBC10202EB0111344A02EB81017F
:1005700008713048006800EBC00202EB00102F4AFF
:1005800002EB8001204601F030FB2B48407A022824
:1005900001D1012000E000202649096801EBC102D9
:1005A00002EB0111254A02EB81014871224890F8C3
:1005B0004C102048006800EBC00202EB00101F4AFC
:1005C00002EB800081711C48807A1A49096801EBAE
:1005D000C10202EB0111194A02EB8101C87100232B
:1005E0000FE015480B30C15C1248006800EBC002F8
:1005F00002EB0010114A02EB800203F108001154D3
:100600005B1C0C48006800EBC00101EB00100B49BB
:1006100001EB8000C0799842E3DC09480068401C87
:100620000749086008460068082801DD08200860BE
:1006300010BD000020000020A80800203804002081
:10064000180000200C49096841F001010A4A1160B4
:100650001146096821F47C511160114609684FF474
:100660007C5202EA00221143034A116011460968D4
:1006700021F0010111607047006600402DE9F04F44
:100680008BB0002457480A904000099001250026AD
:1006900000200890079001274FF001080690059070
:1006A0008146824604900390834602900190009018
:1006B00000BF05E000204C4908554C490855641C12
:1006C000302CF7DB48490A9801F08FFA4649091D9A
:1006D000099801F08AFA45490A9801F086FA4349D7
:1006E000091D099801F081FA3F480572467200F130
:1006F0000A01089801F079FA3B490E31079801F098
:1007000074FA3A480572467200F10A01089801F03D
:100710006CFA36490E31079801F067FA324887744F
:1007200080F8138000F11401069801F05EFA2E495A
:100730001831059801F059FA2C48877480F8138015
:1007400000F11401069801F050FA28491831059873
:1007500001F04BFA244880F81C9080F81DA000F1AD
:100760001E01049801F041FA1F492231039801F05B
:100770003CFA1E4880F81C9080F81DA000F11E0174
:10078000049801F032FA19492231039801F02DFA48
:10079000154880F826B01449029881F827002831BE
:1007A000019801F022FA10492C31009801F01DFA4D
:1007B0000E4880F826B00D49029881F827002831AC
:1007C000019801F012FA09492C31009801F00DFA54
:1007D000054800F00DF8054800F09EF80BB0BDE8A4
:1007E000F08F000020A10700A8070020D8070020F4
:1007F0002DE9F0478CB00546002400260027A046CE
:10080000284600F000FF8146281D00F0FCFE8246CD
:1008100009A9002000F032FE3E4800F013F9002044
:100820008DF8280001208DF8290000208DF82A007D
:1008300001208DF82B008DF82C008DF82D00002064
:100840008DF8240009A9334800F026FB49463148B9
:1008500000F0B2FA03A9022000F010FE01208DF88A
:100860000C008DF80D008DF80E0004208DF80800A6
:100870000020019004208DF8090001A804900020B8
:100880000590069003A9234800F00FF9514621482E
:1008900000F0F2F80E20FFF7D5FE00BF2BE004EBCE
:1008A0008400082101EB4000285C18B304EB8401AC
:1008B0000A2202EB4101481900F0A5FE064604EBAE
:1008C00084010E2202EB4101481900F09CFE07460C
:1008D00004EB8400092101EB4000285C08B10220F0
:1008E00000E000208046A3B208F0FF0231463846FF
:1008F00000F0DEF9641C042CD1DB00221146142028
:1009000001F0F6FB0221034800F098FB0CB0BDE8B3
:10091000F0870000006400402DE9F0478CB00546E8
:10092000002400260027A046284600F06CFE8146E1
:10093000281D00F068FE824609A9002000F09EFDF7
:100940003F4800F07FF800208DF8280001208DF846
:10095000290000208DF82A0001208DF82B008DF849
:100960002C008DF82D0000208DF8240009A93448B2
:1009700000F092FA4946324800F01EFA03A902201C
:1009800000F07CFD01208DF80C008DF80D008DF835
:100990000E0004208DF808000020019004208DF83E
:1009A000090001A8049000200590069003A924489E
:1009B00000F07BF85146224800F05EF80E20FFF769
:1009C00041FE00BF2DE004EB8400082101EB400054
:1009D000285C28B304EB84010A2202EB4101481988
:1009E00000F011FE064604EB84010E2202EB4101E9
:1009F000481900F008FE074604EB8400092101EBCA
:100A00004000285C08B1022000E00020804604F18C
:100A10000F0083B208F0FF023146384600F048F973
:100A2000641C042CCFDB00220121402001F060FB7C
:100A30000221034800F002FB0CB0BDE8F087000083
:100A40000068004010B504460A48844208D140F2CC
:100A5000194001F099FC40F2194001F085FC07E0D3
:100A600040F21A4001F090FC40F21A4001F07CFC88
:100A700010BD00000064004070B504460D4601261C
:100A80000121204600F06BFD012804D1284600F02A
:100A90002FFEE06200E000260221204600F05FFD0C
:100AA000012800D00026304670BD70B502464FF6D2
:100AB000FF74002309B9002070BD106820F0020007
:100AC0001060106840F00100106000E0641E506883
:100AD00000F0010008B9002CF8D1506800F00100C6
:100AE00008B90020E8E7087C4FF0E06505EA0060FF
:100AF0004D7C4FF4702606EA054528438D7C4FF463
:100B0000E00606EA055528438D8A6D1EC5F30905E2
:100B10002843D062D1E9025040EA05034878012811
:100B200002D123F0040301E043F004038878012894
:100B300017D143F01003486888B14868007800F086
:100B4000200003434868007900F07F004D686D790C
:100B50004FF4FE4606EA05252843906203E0002094
:100B6000AAE723F010030878012802D143F001031B
:100B700001E023F001031362106820F0010010600F
:100B80004FF6FF7400E0641E506800F0010008B1E9
:100B9000002CF8D10CB900208EE701208CE7000072
:100BA00010B50021837A012202FA03F13E4A12684D
:100BB00042F001023C4B1A603B4A1C3212688A43E5
:100BC000394B1C331A60C289DAB9374A0C321268C1
:100BD0008A43354B0C331A60C288344B03EA024215
:100BE00043881A434389304C403444F83320828888
:100BF0002E4B03EA024203881A43438904EBC303E2
:100C00005A60C289012A1BD1274A0C3212680A4352
:100C1000254B0C331A600288244B03EA02424388B6
:100C20001A434389204C403444F8332082881F4BB8
:100C300003EA0242C3881A43438904EBC3035A60A0
:100C400082893AB9184A121D12688A43164B1B1D35
:100C50001A6006E0144A121D12680A43124B1B1D4B
:100C60001A6002893AB9104A143212688A430E4B4C
:100C700014331A6006E00C4A143212680A430A4B15
:100C800014331A60027C012A06D1074A1C3212680A
:100C90000A43054B1C331A60034A126822F0010212
:100CA000014B1A6010BD0000006600400000FFFF0D
:100CB000F0B585B004460D4616461F46694601202C
:100CC00000F0DCFBADF80A700020ADF80C0001204C
:100CD000ADF80E008DF8100036B1012E1AD0022E9C
:100CE0002ED0032E60D145E00020ADF808004FF66D
:100CF000FF7000EA4410ADF800000020ADF80200DB
:100D00004FF6FF7000EA4510ADF804000020ADF882
:100D100006004BE00120ADF808004FF6FF7000EA36
:100D20004410ADF800000020ADF802004FF6FF704F
:100D300000EA4510ADF804000020ADF8060035E0EB
:100D40000020ADF80800C4F34F30ADF800004FF6B6
:100D5000FF7000EAC400001DADF80200C5F34F307B
:100D6000ADF804004FF6FF7000EAC500001DADF8B5
:100D700006001BE00120ADF80800C4F34F30ADF8C9
:100D800000004FF6FF7000EAC400001DADF802003D
:100D9000C5F34F30ADF804004FF6FF7000EAC50010
:100DA000001DADF8060001E000BFFEE700BF684689
:100DB000FFF7F6FE05B0F0BD2DE9F04104460E4602
:100DC0004FF001081848864229D80121204600F03A
:100DD000C6FB012818D1E76907F04047256A05F0EE
:100DE000010058B945F001052562304600F02AFCA3
:100DF0003843E06125F00105256207E0304600F048
:100E000021FC3843E06101E04FF000080221204658
:100E100000F0A5FB012804D04FF0000801E04FF0DE
:100E200000084046BDE8F08140420F0010B540F296
:100E3000197001F089FA40F21A7001F085FA40F257
:100E4000036001F081FA40F2056001F07DFA4FF491
:100E5000C06001F079FA4FF48053032248210C4816
:100E600000F058FD4FF4005303221821084800F009
:100E700051FD4FF4006303224821064800F04AFD6B
:100E80004FF4805303221821024800F043FD10BDA7
:100E9000000C014000080140F0B502464FF6FF7417
:100EA0000020156825F002051560156845F001055C
:100EB000156000E0641E556805F001050DB9002CB1
:100EC000F8D1556805F001050DB90020B5E0136AA9
:100ED00003F001057DBB43F0010313620D784FF071
:100EE000404606EA85754E784FF0F85707EA0666E1
:100EF00035438E784FF4702707EA06468F784FF413
:100F0000E05C0CEA87173E433543CE784FF4E007A8
:100F100007EA0656CF784FF4C04C0CEA87273E43C9
:100F200035434E89761EC6F309063543D56123F055
:100F30000103136229E0FFE70D784FF0404606EA0F
:100F400085754E784FF0F85707EA066635438E7878
:100F50004FF4702707EA06468F784FF4E05C0CEAFE
:100F600087173E433543CE784FF4E00707EA06562D
:100F7000CF784FF4C04C0CEA87273E4335434E8967
:100F8000761EC6F309063543D5610D79012D04D1CE
:100F9000156845F08005156003E0156825F08005AB
:100FA00015604D79012D04D1156845F04005156097
:100FB00003E0156825F0400515608D79012D04D1F9
:100FC000156845F02005156003E0156825F020053B
:100FD0001560CD79012D04D1156825F01005156037
:100FE00003E0156845F0100515600D7A012D04D158
:100FF000156825F00805156003E0156845F008053B
:1010000015604D7A012D04D1156845F00405156071
:1010100003E0156825F004051560156825F0010545
:1010200015604FF6FF7400E0641E556805F0010579
:101030000DB1002CF8D104B10120F0BD42690A4382
:1010400042617047F8B50026002500F5D87707EB18
:1010500001173F6807F004071772177A3FB900F5C8
:10106000D87707EB01173F687F0D176006E000F5A2
:10107000D87707EB01173F68FF08576000F5D8776E
:1010800007EB01173F6807F00207577200F5DA77A0
:1010900007EB01173F683F0A82F84B7000F5DA77DB
:1010A00007EB01173F6807F08007FF0982F84C70D3
:1010B000076A07F00106002E51D192F84C70EFBB81
:1010C00000F5DA7707EB01173F6807F00F07977213
:1010D00000F5DC7707EB01173F68D77200F5DC7786
:1010E00007EB01173F684FEA172C82F80CC000F598
:1010F000DC7707EB01173F684FEA174C82F80DC009
:1011000000F5DC7707EB01173F684FEA176C82F8B0
:101110000EC000F5DE7707EB01173F68D77300F5C7
:10112000DE7707EB01173F684FEA172C82F810C0F3
:1011300000F5DE7707EB01173F6800E00DE04FEAAE
:10114000174C82F811C000F5DE7707EB01173F68F6
:101150004FEA176C82F812C049E000BFFEE700F5C5
:10116000DA7707EB01173F6807F00F05082D01D864
:10117000957206E0A5F10907DFF888C01CF8077032
:10118000977200F5DA7707EB01173F68C7F340174E
:1011900082F84D7000F5DA7707EB01173F68C7F367
:1011A000001782F84E70977ABB08012B04D1977A0A
:1011B000042F01D05F1CFBB202F10B0700973BB973
:1011C00000F5DC7707EB01173C68009F3C600EE000
:1011D0000BE000F5DC7707EB01173C68009F3C60F3
:1011E000009F3F1D00975F1EFBB2002BF1D121B97C
:1011F000C76847F02007C76003E0076947F020078A
:101200000761F8BD442700082DE9F84103460A4666
:1012100000210024002600270025986800F0806047
:10122000B0F1806F00D110E0986800F00060B0F17C
:10123000006F01D1012108E0986800F08050B0F102
:10124000805F01D1022100E00321032902D10320A4
:10125000BDE8F88103F5C07000EB0110006800F0F4
:10126000010C03F5C07000EB0110C0F800C0107A4B
:10127000B8B91088DFF8FCC10CEA405092F809C0F8
:1012800040EA0C0003F5C07C0CEB011CDCF800C04C
:1012900040EA0C0003F5C07C0CEB011CCCF800000C
:1012A0001AE06FF0070C50680CEAC00092F808C012
:1012B00040EA0C0092F809C040EA0C0003F5C07C3B
:1012C0000CEB011CDCF800C040EA0C0003F5C07C0C
:1012D0000CEB011CCCF8000092F84B00F0BB03F5BE
:1012E000C27000EB0110006820F0BF0C03F5C27063
:1012F00000EB0110C0F800C003F5C27000EB011054
:10130000006892F80AC040EA0C0003F5C27C0CEBBE
:10131000011CCCF80000907B4FF07F4C0CEA006081
:1013200092F80DC04FF47F0808EA0C4C40EA0C001C
:1013300092F80CC04FF47F4808EA0C2C40EA0C00ED
:1013400092F80BC040EA0C0003F5C47C0CEB011CC6
:10135000CCF80000907C4FF07F4C00E01CE00CEAE1
:10136000006092F811C04FF47F0808EA0C4C40EA84
:101370000C0092F810C04FF47F4808EA0C2C40EAA9
:101380000C0092F80FC040EA0C0003F5C67C0CEB91
:10139000011CCCF800005EE0186A00F00107002F85
:1013A00057D0907A082802D8907A054317E0002495
:1013B0000AE0907ADFF8C0C01CF804C0604501D193
:1013C000012603E0601CC4B2072CF2D300BF012E3B
:1013D00003D104F10900054301E000BFFEE792F8E4
:1013E0004C00400192F84DC040EA0C1092F84BC0FE
:1013F00040EACC10054303F5C27000EB0110056014
:10140000907A8408012C04D1907A042801D0601CC1
:10141000C4B202F10B0000904CB90098D0F800C0A3
:1014200003F5C47000EB0110C0F800C013E00DE03C
:101430000098D0F800C003F5C47000EB0110C0F8AC
:1014400000C00098001D0090601EC4B2002CEFD1B7
:1014500001E000BFFEE703F5C07000EB011000687B
:1014600040F0010C03F5C07000EB0110C0F800C0A3
:101470000846EDE60000E0FF4427000810B50246EC
:1014800009B900BFFEE7052A65D2DFE802F00315BF
:1014900021344B0000234B71CB718B714FF480636F
:1014A0004B8100230B724B7002238B700023CB7097
:1014B0000B714B720B7050E00123CB8100230B7436
:1014C0000B810B804B808B80CB808B814B8144E0E8
:1014D0004FF480638B8200230B7402234B7401232F
:1014E0008B7400238B70CB6001234B7000230B7037
:1014F0008B604B6031E000234B314B708B7001F8F7
:101500004B39002005E0002401F10B031C54431C5F
:10151000D8B24028F7D300238B724B600B724B720A
:101520000B601AE000234C314B708B7001F84C3982
:10153000002005E0002401F10B031C54431CD8B229
:101540004028F7D300238B724B600B7281F84B302D
:101550004B720B6001E000BFFEE700BF10BD10B58D
:1015600002460B4600204FF6FF71012B17D114687D
:1015700024F002041460146844F00104146000E0D4
:10158000491E546804F001040CB90029F8D15468CC
:1015900004F001040CB9002034E0012032E0022BF9
:1015A00013D1146824F00304146000E0491E546849
:1015B00004F003040CB10029F8D1546804F00304CA
:1015C0000CB100201EE001201CE0042B19D114688E
:1015D00024F001041460146844F00204146000E074
:1015E000491E546804F00204022C01D00029F7D1EE
:1015F000546804F00204022C01D0002002E0012013
:1016000000E0002010BD01460020087800024A7862
:10161000104300028A7810430002CA7810437047D2
:101620000648006820B105480068401E034908606C
:1016300003480068401C024908607047A800002069
:10164000B00000202DE9FE4F81460027B846274A0A
:1016500007CA8DE80700022000F0B6FDB0FBF9F6DE
:101660009E20B6FBF0FB0320B6FBF0F414E000274D
:101670000FE0F81C611C00FB01F5B54201D9AD1B60
:1016800000E0751B0298A84202D9019400970295C8
:101690007F1C9E2FEDD9641E5C4503D34FF6FF706F
:1016A0008442E4D305210098B0FBF1F80098A0EB48
:1016B00008004FF4702101EA00400099A1EB0801F5
:1016C0004FF4E05202EA81110843910201EA085105
:1016D0004FF4C04202EA8822114308430199C1F342
:1016E000090140EA010A5046BDE8FE8F04280008BF
:1016F0002DE9FE4F82460026334A07CA8DE80700CF
:10170000B146022000F060FDB0FBFAF51620B5FBF3
:10171000F0F70320B5FBF0FB1EE0002614E0F01C00
:10172000791C00FB01F4AC4202D14FF001090DE03D
:10173000AC4201D9641B00E02C1B0298A04202D9E4
:10174000019700960294761C162EE8D900BFB9F1D5
:10175000000F00D005E07F1CB9F1000F01D15F45FB
:10176000DBD300BFB9F1000F14D0184800EBC6005E
:1017700080884FF4E00101EA0050144931F8361036
:101780004FF4702202EA01410843C7F3090140EA1D
:10179000010816E00D49009801EBC00080884FF465
:1017A000E00101EA0050094A009932F831104FF483
:1017B000702202EA014108430199C1F3090140EA9C
:1017C00001084046BDE8FE8F102800084C2700089D
:1017D00070B505460E4600241D48854200D105E03F
:1017E0001C48854201D1012400E002241A4931F845
:1017F000140000F0A9FD194931F8140000F0A4FD0F
:10180000174951F82430174951F8240003221821B0
:1018100000F080F8144951F82430124951F824009E
:101820000322042100F076F8284600F021FF31461B
:10183000284600F0D5FE0421284600F073FF082159
:10184000284600F077FF284600F05AFF70BD0000E0
:10185000003801400044004064000020480000209F
:101860004C0000205C000020540000202DE9F041D5
:10187000064600250027002440F20151244800F0CC
:1018800097F910B92846BDE8F08140F2015120488F
:1018900000F07AF906E0641C41F28830844201D9F4
:1018A0000020F0E740F20651194800F081F90028C5
:1018B000F1D0002410E0164800F05AF929466D1CBA
:1018C0007054002700E07F1C40F6B8308742FADBF6
:1018D000492D01DD0020D6E740F206510C4800F00A
:1018E00067F90028E7D106E0641C41F288308442A1
:1018F00001D90020C7E740F20451054800F058F92B
:101900000028F1D0024800F03AF92846BBE7000071
:1019100000540040F0B5044616460025002201F0B0
:101920000F0501F0100747B1042E05D145F003055E
:10193000E76B1F43E76300E0354300201EE001270B
:1019400087401F40C7B122684FEA800C0F2707FA73
:101950000CF7BA43870005FA07F73A43282904D160
:10196000012787401F40676105E0482903D101270F
:1019700087401F4027612260471CB8B20828DED389
:10198000082022E0012787401F40E7B16268A0F1EC
:1019900008074FEA870C0F2707FA0CF7BA43A0F1A4
:1019A0000807BF0005FA07F73A43282904D10127A1
:1019B00087401F40676105E0482903D10127874020
:1019C0001F4027616260471CB8B21028DAD3F0BD0F
:1019D000012904D1026842F48062026003E00268D7
:1019E00022F48062026070472DE9F05F04460E46E3
:1019F00092460EB900BFFEE7022000F0E5FB074665
:101A00004648B7FBF0F8B8F13F0F01D34FF03F085D
:101A1000D4F804B02BF03F0B4BEA080BC4F804B029
:101A20003F4886421ED83D48B7FBF0F000F101095F
:101A3000B9F13F0F02D33F20206207E0B9F1020F56
:101A400002D80220206201E0C4F820907000B7FBA9
:101A5000F0F5042D00D20425E069C5F30B0108431D
:101A6000E06158E02F4886422CD84FF4967008FB6E
:101A700000F04FF47A71B0FBF1F0401C2062BAF133
:101A8000000F08D106EB4600B7FBF0F5E06920F443
:101A90008040E06109E006EBC60000EB0610B7FBF2
:101AA000F0F5E06940F48040E061C5F30B0008B94F
:101AB00045F00105E06940F40040E061E069284339
:101AC000E06128E0C8EB0810C0004FF47A71B0FB69
:101AD000F1F0401C2062BAF1000F08D106EB46007D
:101AE000B7FBF0F5E06920F48040E06109E006EB27
:101AF000C60000EB0610B7FBF0F5E06940F480404B
:101B0000E061E06940F40040E061E0692843E061A1
:101B10000120C4F89000BDE8F09F000040420F0093
:101B2000A0860100801A060010B540F2157000F082
:101B30000BFCC02303221C210A48FFF7EBFE002206
:101B400009490A48FFF750FF82230022114607483F
:101B500000F03DF8054800F012F801210348FFF7B6
:101B600037FF10BD000C0140A0860100005400406A
:101B700001460869C0B27047CAB202617047016885
:101B800041F001010160704710B540F201529142ED
:101B900002D1426982690AE000EB9112126801F0F9
:101BA0001F040123A3409A4300EB91131A6010BD58
:101BB00010B5024602EB9110006801F01F040123EA
:101BC000A340184008B1012010BD0020FCE730B54B
:101BD0000C460021016821F0020121430160C3F39A
:101BE000090342EA0305856030BD020E0A70020C4B
:101BF0004A70020A8A70C870704700009AB00024C8
:101C000000BF02E0FE490C55641C642CFADB00F0B6
:101C10004DFAFEF745FB4FF4E130FEF76BFBFFF7A3
:101C200005F9FEF72BFDFFF77FFFF6490320FFF7CD
:101C300025FC5520F349086048600020487208726E
:101C400008208872012081F84B0081F84C000020A8
:101C500081F84D00EC490420FFF710FCEB4904200B
:101C6000FFF70CFC17E201A8FFF700FE0546002D68
:101C70007ED09DF80400001F16287AD2DFE800F01D
:101C8000150B2740A6ED7979797979797979797980
:101C90001E10FAEBEAE901A9DD48FEF7BFFAE8E118
:101CA00001A9DC48FEF7BAFAE3E1DB480078D44941
:101CB00008700121D24800F077FBDAE1D7480078BC
:101CC000CF4908700121CE4800F06EFBD1E1D24827
:101CD0000068A0B100240CE0D148006800EBC0010E
:101CE00001EB0010CF4901EB8000005DC4490855AD
:101CF000641C082CF0DB0821C14800F055FBB8E15A
:101D0000C5480068002860D0C548006800EBC001E5
:101D100001EB0010C34901EB8000C07920283DDCB5
:101D200000240EE0BE48006800EBC00101EB00108B
:101D3000BC4901EB800104F10800085CB04908557A
:101D4000641CB748006800EBC00101EB0010B54906
:101D500001EB8000C079A042E4DCB148006800EBF0
:101D6000C00202EB00100A4602EB8000C17901E0DC
:101D700080E17DE1A24800F017FBA9480068401E01
:101D8000A749086008460068002801DA07200860B3
:101D9000A1480068401EA049086016E000240EE03B
:101DA0009F48006800EBC00101EB00109D4901EB6A
:101DB000800104F10800085C91490855641C202C3E
:101DC000EEDB20218E4800F0EFFA52E192480068E5
:101DD000F0B39348006800EBC00101EB001091499B
:101DE00001EB8000C079202843DD00240EE08C4800
:101DF000006800EBC00101EB00108A4901EB800193
:101E000004F12800085C7E490855641C8448006879
:101E100000EBC00101EB0010824901EB8000C079AA
:101E20002038A042E3DC7E48006800EBC00202EBF1
:101E300000100A4602EB8000C079A0F12001704832
:101E400000F0B2FA76480068401E7549086005E067
:101E50000FE000E18AE026E00CE0EFE008460068D1
:101E6000002801DA072008606B480068401E6A49B4
:101E70000860FEE069480068A0B100240CE06A48F0
:101E8000006800EBC00101EB0010684901EB800025
:101E9000005D5B490855641C082CF0DB082158489C
:101EA00000F082FAE5E05D48006800285DD05E48F9
:101EB000006800EBC00101EB00105C4901EB800001
:101EC000C07920283ADC00240EE05748006800EB77
:101ED000C00101EB0010554901EB800104F108003D
:101EE000085C47490855641C4F48006800EBC00176
:101EF00001EB00104D4901EB8000C079A042E4DC09
:101F00004948006800EBC00202EB00100A4602EBF1
:101F10008000C1793A4800F047FA43480068401E03
:101F20004149086008460068002801DA0720086077
:101F30003A480068401E3949086016E000240EE067
:101F40003948006800EBC00101EB0010374901EB94
:101F5000800104F10800085C29490855641C202C04
:101F6000EEDB2021264800F01FFA82E02B480068B3
:101F7000F0B32D48006800EBC00101EB00102B49C5
:101F800001EB8000C079202857DD00240EE02648B0
:101F9000006800EBC00101EB0010244901EB800157
:101FA00004F12800085C16490855641C1E480068A6
:101FB00000EBC00101EB00101C4901EB8000C0796F
:101FC0002038A042E3DC1848006800EBC00202EBB6
:101FD00000100A4602EB8000C079A0F120010848F9
:101FE00000F0E2F910480068401E0F49086000E068
:101FF00023E008460068002801DA0720086017E09F
:10200000F80800200808002058080020A808002030
:102010000064004000680040140000201800002008
:102020001C0000201801002020000020380400209F
:1020300019480068401E184908601AE030220DF166
:1020400005011648FEF7A0F81448FEF7D1FB144826
:10205000FEF762FC0DE030220DF105011048FEF79D
:1020600093F80E48FEF7C4FB0D48FEF755FC00E060
:1020700000BF00BF0B48006820B10020094908607C
:10208000FEF7B4F90848006820B10020064908604E
:10209000FEF742FA00BFE6E518000020A80700207E
:1020A000D80700200C0000201000002010B50020F0
:1020B00012E000210DE0002200EB80030A4C04EB4B
:1020C00043035A5400EB8003084C04EB43035A5477
:1020D000491C0A29EFDB401C0A28EADB0122024BDB
:1020E0001A70024B1A7010BD58070020800700209C
:1020F0002DE9F04103460D46164600240027A04670
:102100002448006800F4E060B0F5A06F15D006DC4C
:10211000B0F5407F18D0B0F5806F19D110E0B0F560
:10212000C06F06D0B0F5E06F12D100274FF0040861
:1021300015E001274FF0030811E00227B8460EE032
:1021400003274FF001080AE004274FF0000806E0DB
:102150004FF4A06000F022F80227B84600BF00BF8D
:10216000C7F1040005FA00F4C8F104010F20C840CB
:102170003040044324010848C45403F01F010120E7
:1021800088405911890001F1E021C1F80001BDE842
:10219000F08100000CED00E000E400E002490143A2
:1021A000024A1160704700000000FA050CED00E0E3
:1021B000034A0A400243034B1A60BFF34F8F704734
:1021C00080FFFF1F08ED00E02DE9F14F8EB00020E9
:1021D0000C9055A090E8004CC068CDE905BECDF844
:1021E00010A0079051A0D0F804A00068CDE9020A21
:1021F0000FF2381ADAE9000ACDE9000A4E484068C1
:10220000C0F381000D900D9820B1012804D0022860
:1022100056D103E0494A55E0484A53E046484068F1
:1022200000F48039B9F5803F2FD14348C06A00F0EF
:1022300080400B900B9808B9404900E040493E4867
:10224000C06A00F480300A900A98B0F5803F12D13D
:102250003948C06AC0F30310401C08903648C06A71
:10226000C0F30320871C112F00D114270898B1FB5D
:10227000F0F000FB07F13048C06A00F00F00401C8E
:1022800009900998B1FBF0F100E02E492A48406816
:10229000C0F383432848406800F0005008B143F081
:1022A00010030F2B01D29B1C00E05B1C01FB03F20F
:1022B0000F2B04D101EB4100400000EB510201E083
:1022C0001E4A00BF00BF1C484068C0F3031504A8A5
:1022D000465D22FA06F418484068C0F3022502A8B9
:1022E000465D24FA06FC14484068C0F3C2251DF878
:1022F000056024FA06F80E9830B1012806D00228AD
:1023000006D003280AD106E00C9208E00C9406E0FF
:10231000CDF830C003E0CDF8308000E000BF00BF52
:102320000C980FB0BDE8F08F000000000000000026
:1023300001020304060708090010024000127A0097
:10234000006CDC0200093D00064A02EB90110968AE
:1023500000F01F0301229A401143024B03EB90123D
:102360001160704700100240064A02EB90110968A4
:1023700000F01F0301229A409143024B03EB90129D
:102380001160704700100240064A02EB9011096884
:1023900000F01F0301229A401143024B03EB9012FD
:1023A00011607047001002402DE9F04107460D46CC
:1023B000002600240CE0641C41F28830844207D9D6
:1023C00040F201513048FFF7DFFB0020BDE8F0810B
:1023D00040F201512C48FFF7EBFB0028EBD0002422
:1023E00040F201512848FFF7CFFB0BE0641C41F29B
:1023F0008830844206D940F207512348FFF7C4FBD6
:102400000020E3E740F207511F48FFF7D1FB002807
:10241000ECD00024002619E0B95D1B48FFF7ACFBA7
:102420000BE0641C41F28830844206D940F2075127
:102430001548FFF7A9FB0020C8E740F207511248F2
:10244000FFF7B6FB0028ECD00024761CAE42E3DB9D
:102450000BE0641C41F28830844206D940F20A51F4
:102460000948FFF791FB0020B0E740F20A51064807
:10247000FFF79EFB0028ECD040F20A510248FFF71C
:1024800083FB2846A2E70000005400400020002102
:10249000374A126842F48032354B1A6000BF401C44
:1024A000334A126802F4003119B94FF6FF729042B4
:1024B000F5D12F4A126802F400320AB900BFFEE7D4
:1024C0002C4A126822F00702D21C2A4B1A60284AB2
:1024D0005268274B5A601A4652685A601A46526828
:1024E00042F480625A601A465268234B1A40204BCD
:1024F0005A601A465268214B1A431D4B5A601A46BD
:10250000D26A1F4B1A401A4BDA621A46D26A1D4B26
:102510001A43174BDA621A46126842F080621A6058
:1025200000BF134A126802F00062002AF9D0104A74
:10253000126842F080720E4B1A6000BF0C4A12689B
:1025400002F00072002AF9D0094A526822F0030210
:10255000074B5A601A46526842F002025A6000BFA6
:10256000034A526802F00802002AF9D070470000BE
:102570000010024000200240FFFFC3DF00003520B2
:1025800000F0FEBF1908010010B5FFF77FFF10BD76
:1025900010B5124800684FF47A71B0FBF1F4601E78
:1025A000B0F1807F01D301200FE0601E4FF0E021E9
:1025B00048610F214FF0FF30FDF786FE00204FF0FD
:1025C000E021886107200861002008B100BFFEE714
:1025D0000021481EFDF778FE10BD0000000000201D
:1025E0002DE9F04704460D460027B846B9460026B7
:1025F0001D49601A8C421CD006DC1C48204470B176
:10260000B0F5806F1FD10FE0B0F5806F16D0B0F538
:102610006C4F18D10320FFF7D7FD074614E00220C6
:10262000FFF7D2FD07460FE00220FFF7CDFD07467A
:102630000AE00220FFF7C8FD074605E00220FFF789
:10264000C3FD074600E000BF00BF07EB5500B0FB2D
:10265000F5F64FF6F07006EA000806F00F0948EAB2
:102660000900A060BDE8F087004C004000BCFFBF3F
:1026700010B504462049601A8C4228D006DC1F4859
:10268000204490B1B0F5806F33D117E0B0F5806F82
:1026900026D0B0F56C4F2CD140F20E30FFF774FE0F
:1026A00040F20E30FFF760FE24E040F21140FFF7E9
:1026B0006BFE40F21140FFF757FE1BE040F2124064
:1026C000FFF762FE40F21240FFF74EFE12E040F2CA
:1026D0001340FFF759FE40F21340FFF745FE09E0B3
:1026E00040F21440FFF750FE40F21440FFF73CFE6A
:1026F00000E000BF00BF10BD004C004000BCFFBFA9
:10270000C16841F40051C160704710B500EB9112EF
:10271000126801F01F040123A3401A4300EB911338
:102720001A6010BD0A460021C16821F0040111435E
:10273000C16070470A460021C16821F008011143B9
:10274000C16070470C1014182030400000000000D9
:102750000000000001000000000000000200000076
:102760000000000003000000000000000300000063
:10277000010000000400000001000000050000004E
:10278000010000000600000001000000060000003B
:102790000200000007000000020000000800000026
:1027A0000200000009000000020000000900000013
:1027B000030000000A000000030000000B000000FE
:1027C000030000000C000000030000000D000000EA
:1027D000030000000D000000040000000E000000D7
:1027E000040000000F000000040000000F000000C3
:1027F000050000000F000000060000000F000000B0
:10280000070000000000000000000000FFFFFFFFC5
:102810000000000000000000FFFFFFFF3C28000850
:1028200000000020B4000000CC030008F0280008DD
:10283000B4000020AC0C0000DC030008000E2707E9
:102840000000000000000000000000000000000088
:102850000000000000000000000000000000000078
:10286000000000000010014000100140001801406D
:1028700000180140010000000400000001000000F9
:10288000020000000E061107000200000400000014
:10289000000400000800000000080140000801409A
:1028A00002060206040604060606060600080140A3
:1028B00000100140000C0140010000000020000059
:1028C00000400000020604060306000001000000AC
:1028D0000020000000400000000201000D0E06284C
:1028E00028000000000000000000000000000000C0
:04000005080001519D
:00000001FF
